{
  "_format": "hh-sol-artifact-1",
  "contractName": "VotingContractNFT",
  "sourceName": "contracts/VotingContractsNFT.sol",
  "abi": [
    {
      "inputs": [
        {
          "internalType": "address",
          "name": "_nftAddress",
          "type": "address"
        }
      ],
      "stateMutability": "nonpayable",
      "type": "constructor"
    },
    {
      "inputs": [
        {
          "internalType": "string",
          "name": "_title",
          "type": "string"
        },
        {
          "internalType": "string[]",
          "name": "_options",
          "type": "string[]"
        },
        {
          "internalType": "uint256",
          "name": "_durationSeconds",
          "type": "uint256"
        }
      ],
      "name": "createVoting",
      "outputs": [],
      "stateMutability": "nonpayable",
      "type": "function"
    },
    {
      "inputs": [
        {
          "internalType": "uint256",
          "name": "_votingId",
          "type": "uint256"
        }
      ],
      "name": "endVoting",
      "outputs": [],
      "stateMutability": "nonpayable",
      "type": "function"
    },
    {
      "inputs": [
        {
          "internalType": "uint256",
          "name": "_votingId",
          "type": "uint256"
        },
        {
          "internalType": "uint256",
          "name": "_optionId",
          "type": "uint256"
        }
      ],
      "name": "getOption",
      "outputs": [
        {
          "internalType": "string",
          "name": "",
          "type": "string"
        },
        {
          "internalType": "uint256",
          "name": "",
          "type": "uint256"
        }
      ],
      "stateMutability": "view",
      "type": "function"
    },
    {
      "inputs": [
        {
          "internalType": "uint256",
          "name": "_votingId",
          "type": "uint256"
        }
      ],
      "name": "getVotingDetails",
      "outputs": [
        {
          "internalType": "string",
          "name": "title",
          "type": "string"
        },
        {
          "internalType": "bool",
          "name": "active",
          "type": "bool"
        },
        {
          "internalType": "uint256",
          "name": "endTime",
          "type": "uint256"
        },
        {
          "internalType": "uint256",
          "name": "optionsCount",
          "type": "uint256"
        }
      ],
      "stateMutability": "view",
      "type": "function"
    },
    {
      "inputs": [
        {
          "internalType": "uint256",
          "name": "_votingId",
          "type": "uint256"
        }
      ],
      "name": "getWinner",
      "outputs": [
        {
          "internalType": "string",
          "name": "winner",
          "type": "string"
        },
        {
          "internalType": "uint256",
          "name": "votes",
          "type": "uint256"
        }
      ],
      "stateMutability": "view",
      "type": "function"
    },
    {
      "inputs": [
        {
          "internalType": "uint256",
          "name": "_votingId",
          "type": "uint256"
        },
        {
          "internalType": "address",
          "name": "_user",
          "type": "address"
        }
      ],
      "name": "hasAddressVoted",
      "outputs": [
        {
          "internalType": "bool",
          "name": "",
          "type": "bool"
        }
      ],
      "stateMutability": "view",
      "type": "function"
    },
    {
      "inputs": [],
      "name": "nftContract",
      "outputs": [
        {
          "internalType": "contract IERC721",
          "name": "",
          "type": "address"
        }
      ],
      "stateMutability": "view",
      "type": "function"
    },
    {
      "inputs": [],
      "name": "owner",
      "outputs": [
        {
          "internalType": "address",
          "name": "",
          "type": "address"
        }
      ],
      "stateMutability": "view",
      "type": "function"
    },
    {
      "inputs": [
        {
          "internalType": "uint256",
          "name": "_votingId",
          "type": "uint256"
        },
        {
          "internalType": "uint256",
          "name": "_optionId",
          "type": "uint256"
        }
      ],
      "name": "vote",
      "outputs": [],
      "stateMutability": "nonpayable",
      "type": "function"
    },
    {
      "inputs": [],
      "name": "votingCount",
      "outputs": [
        {
          "internalType": "uint256",
          "name": "",
          "type": "uint256"
        }
      ],
      "stateMutability": "view",
      "type": "function"
    },
    {
      "inputs": [
        {
          "internalType": "uint256",
          "name": "",
          "type": "uint256"
        }
      ],
      "name": "votings",
      "outputs": [
        {
          "internalType": "string",
          "name": "title",
          "type": "string"
        },
        {
          "internalType": "bool",
          "name": "active",
          "type": "bool"
        },
        {
          "internalType": "uint256",
          "name": "startTime",
          "type": "uint256"
        },
        {
          "internalType": "uint256",
          "name": "endTime",
          "type": "uint256"
        },
        {
          "internalType": "uint256",
          "name": "optionsCount",
          "type": "uint256"
        }
      ],
      "stateMutability": "view",
      "type": "function"
    }
  ],
  "bytecode": "0x60806040523480156200001157600080fd5b5060405162001b7138038062001b71833981810160405281019062000037919062000129565b336000806101000a81548173ffffffffffffffffffffffffffffffffffffffff021916908373ffffffffffffffffffffffffffffffffffffffff16021790555080600160006101000a81548173ffffffffffffffffffffffffffffffffffffffff021916908373ffffffffffffffffffffffffffffffffffffffff160217905550506200015b565b600080fd5b600073ffffffffffffffffffffffffffffffffffffffff82169050919050565b6000620000f182620000c4565b9050919050565b6200010381620000e4565b81146200010f57600080fd5b50565b6000815190506200012381620000f8565b92915050565b600060208284031215620001425762000141620000bf565b5b6000620001528482850162000112565b91505092915050565b611a06806200016b6000396000f3fe608060405234801561001057600080fd5b50600436106100a95760003560e01c8063736faeec11610071578063736faeec1461017b5780638da5cb5b146101ab578063a598d03c146101c9578063b384abef146101fd578063b424ab8414610219578063d56d229d14610237576100a9565b80631ce30927146100ae57806336effcaa146100df5780634129b2c914610112578063512ec77f14610143578063649f89a51461015f575b600080fd5b6100c860048036038101906100c39190610cd1565b610255565b6040516100d6929190610db0565b60405180910390f35b6100f960048036038101906100f49190610de0565b610378565b6040516101099493929190610e28565b60405180910390f35b61012c60048036038101906101279190610de0565b610451565b60405161013a929190610db0565b60405180910390f35b61015d6004803603810190610158919061108f565b610572565b005b61017960048036038101906101749190610de0565b6106ff565b005b61019560048036038101906101909190611178565b610816565b6040516101a291906111b8565b60405180910390f35b6101b3610881565b6040516101c091906111e2565b60405180910390f35b6101e360048036038101906101de9190610de0565b6108a5565b6040516101f49594939291906111fd565b60405180910390f35b61021760048036038101906102129190610cd1565b610970565b005b610221610c5b565b60405161022e9190611257565b60405180910390f35b61023f610c61565b60405161024c91906112d1565b60405180910390f35b6060600080600360008681526020019081526020016000209050806004015484106102b5576040517f08c379a00000000000000000000000000000000000000000000000000000000081526004016102ac90611338565b60405180910390fd5b806005016000858152602001908152602001600020816006016000868152602001908152602001600020548180546102ec90611387565b80601f016020809104026020016040519081016040528092919081815260200182805461031890611387565b80156103655780601f1061033a57610100808354040283529160200191610365565b820191906000526020600020905b81548152906001019060200180831161034857829003601f168201915b5050505050915092509250509250929050565b6060600080600080600360008781526020019081526020016000209050806000018160010160009054906101000a900460ff16826003015483600401548380546103c190611387565b80601f01602080910402602001604051908101604052809291908181526020018280546103ed90611387565b801561043a5780601f1061040f5761010080835404028352916020019161043a565b820191906000526020600020905b81548152906001019060200180831161041d57829003601f168201915b505050505093509450945094509450509193509193565b606060008060036000858152602001908152602001600020905060008060005b83600401548110156104c357828460060160008381526020019081526020016000205411156104b6578360060160008281526020019081526020016000205492508091505b8080600101915050610471565b50826005016000828152602001908152602001600020828180546104e690611387565b80601f016020809104026020016040519081016040528092919081815260200182805461051290611387565b801561055f5780601f106105345761010080835404028352916020019161055f565b820191906000526020600020905b81548152906001019060200180831161054257829003601f168201915b5050505050915094509450505050915091565b60008054906101000a900473ffffffffffffffffffffffffffffffffffffffff1673ffffffffffffffffffffffffffffffffffffffff163373ffffffffffffffffffffffffffffffffffffffff1614610600576040517f08c379a00000000000000000000000000000000000000000000000000000000081526004016105f790611404565b60405180910390fd5b600060036000600254815260200190815260200160002090508381600001908161062a91906115c6565b50428160020181905550814261064091906116c7565b816003018190555060018160010160006101000a81548160ff0219169083151502179055508251816004018190555060005b83518110156106e05783818151811061068e5761068d6116fb565b5b602002602001015182600501600083815260200190815260200160002090816106b791906115c6565b506000826006016000838152602001908152602001600020819055508080600101915050610672565b50600260008154809291906106f49061172a565b919050555050505050565b60008054906101000a900473ffffffffffffffffffffffffffffffffffffffff1673ffffffffffffffffffffffffffffffffffffffff163373ffffffffffffffffffffffffffffffffffffffff161461078d576040517f08c379a000000000000000000000000000000000000000000000000000000000815260040161078490611404565b60405180910390fd5b60006003600083815260200190815260200160002090508060010160009054906101000a900460ff166107f5576040517f08c379a00000000000000000000000000000000000000000000000000000000081526004016107ec906117be565b60405180910390fd5b60008160010160006101000a81548160ff0219169083151502179055505050565b60006003600084815260200190815260200160002060070160008373ffffffffffffffffffffffffffffffffffffffff1673ffffffffffffffffffffffffffffffffffffffff16815260200190815260200160002060009054906101000a900460ff16905092915050565b60008054906101000a900473ffffffffffffffffffffffffffffffffffffffff1681565b60036020528060005260406000206000915090508060000180546108c890611387565b80601f01602080910402602001604051908101604052809291908181526020018280546108f490611387565b80156109415780601f1061091657610100808354040283529160200191610941565b820191906000526020600020905b81548152906001019060200180831161092457829003601f168201915b5050505050908060010160009054906101000a900460ff16908060020154908060030154908060040154905085565b60006003600084815260200190815260200160002090508060010160009054906101000a900460ff166109d8576040517f08c379a00000000000000000000000000000000000000000000000000000000081526004016109cf9061182a565b60405180910390fd5b80600301544210610a1e576040517f08c379a0000000000000000000000000000000000000000000000000000000008152600401610a1590611896565b60405180910390fd5b8060070160003373ffffffffffffffffffffffffffffffffffffffff1673ffffffffffffffffffffffffffffffffffffffff16815260200190815260200160002060009054906101000a900460ff1615610aad576040517f08c379a0000000000000000000000000000000000000000000000000000000008152600401610aa490611902565b60405180910390fd5b6000600160009054906101000a900473ffffffffffffffffffffffffffffffffffffffff1673ffffffffffffffffffffffffffffffffffffffff166370a08231336040518263ffffffff1660e01b8152600401610b0a91906111e2565b602060405180830381865afa158015610b27573d6000803e3d6000fd5b505050506040513d601f19601f82011682018060405250810190610b4b9190611937565b11610b8b576040517f08c379a0000000000000000000000000000000000000000000000000000000008152600401610b82906119b0565b60405180910390fd5b80600401548210610bd1576040517f08c379a0000000000000000000000000000000000000000000000000000000008152600401610bc890611338565b60405180910390fd5b8060060160008381526020019081526020016000206000815480929190610bf79061172a565b919050555060018160070160003373ffffffffffffffffffffffffffffffffffffffff1673ffffffffffffffffffffffffffffffffffffffff16815260200190815260200160002060006101000a81548160ff021916908315150217905550505050565b60025481565b600160009054906101000a900473ffffffffffffffffffffffffffffffffffffffff1681565b6000604051905090565b600080fd5b600080fd5b6000819050919050565b610cae81610c9b565b8114610cb957600080fd5b50565b600081359050610ccb81610ca5565b92915050565b60008060408385031215610ce857610ce7610c91565b5b6000610cf685828601610cbc565b9250506020610d0785828601610cbc565b9150509250929050565b600081519050919050565b600082825260208201905092915050565b60005b83811015610d4b578082015181840152602081019050610d30565b60008484015250505050565b6000601f19601f8301169050919050565b6000610d7382610d11565b610d7d8185610d1c565b9350610d8d818560208601610d2d565b610d9681610d57565b840191505092915050565b610daa81610c9b565b82525050565b60006040820190508181036000830152610dca8185610d68565b9050610dd96020830184610da1565b9392505050565b600060208284031215610df657610df5610c91565b5b6000610e0484828501610cbc565b91505092915050565b60008115159050919050565b610e2281610e0d565b82525050565b60006080820190508181036000830152610e428187610d68565b9050610e516020830186610e19565b610e5e6040830185610da1565b610e6b6060830184610da1565b95945050505050565b600080fd5b600080fd5b7f4e487b7100000000000000000000000000000000000000000000000000000000600052604160045260246000fd5b610eb682610d57565b810181811067ffffffffffffffff82111715610ed557610ed4610e7e565b5b80604052505050565b6000610ee8610c87565b9050610ef48282610ead565b919050565b600067ffffffffffffffff821115610f1457610f13610e7e565b5b610f1d82610d57565b9050602081019050919050565b82818337600083830152505050565b6000610f4c610f4784610ef9565b610ede565b905082815260208101848484011115610f6857610f67610e79565b5b610f73848285610f2a565b509392505050565b600082601f830112610f9057610f8f610e74565b5b8135610fa0848260208601610f39565b91505092915050565b600067ffffffffffffffff821115610fc457610fc3610e7e565b5b602082029050602081019050919050565b600080fd5b6000610fed610fe884610fa9565b610ede565b905080838252602082019050602084028301858111156110105761100f610fd5565b5b835b8181101561105757803567ffffffffffffffff81111561103557611034610e74565b5b8086016110428982610f7b565b85526020850194505050602081019050611012565b5050509392505050565b600082601f83011261107657611075610e74565b5b8135611086848260208601610fda565b91505092915050565b6000806000606084860312156110a8576110a7610c91565b5b600084013567ffffffffffffffff8111156110c6576110c5610c96565b5b6110d286828701610f7b565b935050602084013567ffffffffffffffff8111156110f3576110f2610c96565b5b6110ff86828701611061565b925050604061111086828701610cbc565b9150509250925092565b600073ffffffffffffffffffffffffffffffffffffffff82169050919050565b60006111458261111a565b9050919050565b6111558161113a565b811461116057600080fd5b50565b6000813590506111728161114c565b92915050565b6000806040838503121561118f5761118e610c91565b5b600061119d85828601610cbc565b92505060206111ae85828601611163565b9150509250929050565b60006020820190506111cd6000830184610e19565b92915050565b6111dc8161113a565b82525050565b60006020820190506111f760008301846111d3565b92915050565b600060a08201905081810360008301526112178188610d68565b90506112266020830187610e19565b6112336040830186610da1565b6112406060830185610da1565b61124d6080830184610da1565b9695505050505050565b600060208201905061126c6000830184610da1565b92915050565b6000819050919050565b600061129761129261128d8461111a565b611272565b61111a565b9050919050565b60006112a98261127c565b9050919050565b60006112bb8261129e565b9050919050565b6112cb816112b0565b82525050565b60006020820190506112e660008301846112c2565b92915050565b7f496e76616c6964206f7074696f6e000000000000000000000000000000000000600082015250565b6000611322600e83610d1c565b915061132d826112ec565b602082019050919050565b6000602082019050818103600083015261135181611315565b9050919050565b7f4e487b7100000000000000000000000000000000000000000000000000000000600052602260045260246000fd5b6000600282049050600182168061139f57607f821691505b6020821081036113b2576113b1611358565b5b50919050565b7f4f6e6c79206f776e65722063616e20646f207468697300000000000000000000600082015250565b60006113ee601683610d1c565b91506113f9826113b8565b602082019050919050565b6000602082019050818103600083015261141d816113e1565b9050919050565b60008190508160005260206000209050919050565b60006020601f8301049050919050565b600082821b905092915050565b6000600883026114867fffffffffffffffffffffffffffffffffffffffffffffffffffffffffffffffff82611449565b6114908683611449565b95508019841693508086168417925050509392505050565b60006114c36114be6114b984610c9b565b611272565b610c9b565b9050919050565b6000819050919050565b6114dd836114a8565b6114f16114e9826114ca565b848454611456565b825550505050565b600090565b6115066114f9565b6115118184846114d4565b505050565b5b818110156115355761152a6000826114fe565b600181019050611517565b5050565b601f82111561157a5761154b81611424565b61155484611439565b81016020851015611563578190505b61157761156f85611439565b830182611516565b50505b505050565b600082821c905092915050565b600061159d6000198460080261157f565b1980831691505092915050565b60006115b6838361158c565b9150826002028217905092915050565b6115cf82610d11565b67ffffffffffffffff8111156115e8576115e7610e7e565b5b6115f28254611387565b6115fd828285611539565b600060209050601f831160018114611630576000841561161e578287015190505b61162885826115aa565b865550611690565b601f19841661163e86611424565b60005b8281101561166657848901518255600182019150602085019450602081019050611641565b86831015611683578489015161167f601f89168261158c565b8355505b6001600288020188555050505b505050505050565b7f4e487b7100000000000000000000000000000000000000000000000000000000600052601160045260246000fd5b60006116d282610c9b565b91506116dd83610c9b565b92508282019050808211156116f5576116f4611698565b5b92915050565b7f4e487b7100000000000000000000000000000000000000000000000000000000600052603260045260246000fd5b600061173582610c9b565b91507fffffffffffffffffffffffffffffffffffffffffffffffffffffffffffffffff820361176757611766611698565b5b600182019050919050565b7f416c726561647920656e64656400000000000000000000000000000000000000600082015250565b60006117a8600d83610d1c565b91506117b382611772565b602082019050919050565b600060208201905081810360008301526117d78161179b565b9050919050565b7f566f74696e67206973206e6f7420616374697665000000000000000000000000600082015250565b6000611814601483610d1c565b915061181f826117de565b602082019050919050565b6000602082019050818103600083015261184381611807565b9050919050565b7f566f74696e672068617320656e64656400000000000000000000000000000000600082015250565b6000611880601083610d1c565b915061188b8261184a565b602082019050919050565b600060208201905081810360008301526118af81611873565b9050919050565b7f416c726561647920766f74656400000000000000000000000000000000000000600082015250565b60006118ec600d83610d1c565b91506118f7826118b6565b602082019050919050565b6000602082019050818103600083015261191b816118df565b9050919050565b60008151905061193181610ca5565b92915050565b60006020828403121561194d5761194c610c91565b5b600061195b84828501611922565b91505092915050565b7f4d757374206f776e206174206c65617374206f6e65204e465400000000000000600082015250565b600061199a601983610d1c565b91506119a582611964565b602082019050919050565b600060208201905081810360008301526119c98161198d565b905091905056fea2646970667358221220f71346b3e17532c22daef119dde583e9eb2eb764e45b0088406cd1150a03e63864736f6c63430008180033",
  "linkReferences": {},
  "deployedLinkReferences": {}
}